:020000040800F2
:10000000005000207D1D0008BD1C0008C91C000810
:10001000CF1C0008D51C0008DB1C000800000000F5
:10002000000000000000000000000000E11C0008CB
:10003000ED1C000800000000F91C0008051D000868
:10004000C51D0008C51D0008C51D0008C51D000808
:10005000C51D0008C51D0008C51D0008C51D0008F8
:10006000C51D0008C51D0008C51D0008C51D0008E8
:10007000C51D0008C51D0008C51D0008C51D0008D8
:10008000C51D0008C51D0008C51D0008C51D0008C8
:10009000C51D0008C51D0008C51D0008C51D0008B8
:1000A000C51D0008C51D0008C51D0008C51D0008A8
:1000B000C51D0008C51D0008C51D0008C51D000898
:1000C000C51D0008C51D0008C51D0008C51D000888
:1000D000C51D0008C51D0008C51D0008C51D000878
:1000E000C51D0008C51D0008C51D00080000000052
:1000F0000000000000000000000000000000000000
:0C01000000000000000000005FF808F1A3
:10010C0010B5054C237833B9044B13B10448AFF345
:10011C0000800123237010BD0C00002000000000A3
:10012C00101E000808B5034B1BB103490348AFF37D
:10013C00008008BD0000000010000020101E000808
:10014C0080B500AF084A084B1B6843F010031360DE
:10015C00032000F015FD002000F008F801F04AFD26
:10016C000023184680BD00BF0020024080B582B03D
:10017C0000AF7860124B1A68124B1B7819464FF47B
:10018C007A73B3FBF1F3B2FBF3F3184600F01FFDE7
:10019C000346002B01D001230EE07B680F2B0AD8FD
:1001AC00002279684FF0FF3000F0F5FC064A7B68BE
:1001BC001360002300E0012318460837BD4680BDBC
:1001CC0008000020040000200000002080B400AFD4
:1001DC00054B1B781A46054B1B681344034A1360E6
:1001EC0000BFBD4680BC70470400002028000020E2
:1001FC0080B400AF024B1B681846BD4680BC7047EC
:10020C002800002080B586B000AF78600023FB7515
:10021C0000233B610023BB600023FB607B68002B49
:10022C0001D10123BEE07B689B68002B7B689B6A35
:10023C00002B09D17B680022DA627B68002283F8EC
:10024C002420786801F002FC786800F0B1FB0346CA
:10025C00FB757B689B6A03F01003002B40F09980C0
:10026C00FB7D002B40F095807B689B6A23F48853C0
:10027C0023F0020343F002027B689A627B685A689F
:10028C007B68DB691A437B68DB685B001343BA68E5
:10029C001343BB607B689B68B3F5807F03D07B689E
:1002AC009B68012B02D14FF4807300E000233A6964
:1002BC0013433B617B685B69012B19D17B68DB685D
:1002CC00002B09D17B689B69013B5A033B691343A3
:1002DC0043F400633B610BE07B689B6A43F02002B4
:1002EC007B689A627B68DB6A43F001027B68DA62A6
:1002FC007B681B687A681268526822F469413A6913
:10030C000A435A607B681A687B681B689968274B9C
:10031C000B40B9680B4393607B689B68B3F5807F97
:10032C0003D07B689B68012B04D17B681B69013B64
:10033C001B05FB607B681B687A681268D26A22F422
:10034C007001FA680A43DA627B681B689A68184B7A
:10035C001340BA6893420BD17B680022DA627B6847
:10036C009B6A23F0030343F001027B689A6218E056
:10037C007B689B6A23F0120343F010027B689A623D
:10038C007B68DB6A43F001027B68DA620123FB7550
:10039C0007E07B689B6A43F010027B689A6201233A
:1003AC00FB75FB7D18461837BD4680BDFDF7E1FF98
:1003BC00FE0E1FFF80B584B000AF78600023FB7386
:1003CC007B6893F82430012B01D1022398E07B68E1
:1003DC00012283F82420786800F098FA0346FB7316
:1003EC00FB7B002B40F087807B689B6A23F4407377
:1003FC0023F0010343F480727B689A627B681B686C
:10040C00414A934205D1414B5B6803F47023002BA6
:10041C0015D17B689B6A23F480127B689A627B6897
:10042C001B685B6803F48063002B26D07B689B6A97
:10043C0023F4405343F480527B689A621DE07B683E
:10044C009B6A43F480127B689A627B681B682F4A14
:10045C00934204D07B681B682B4A93420DD12B4BE3
:10046C005B6803F48063002B07D07B689B6A23F4E2
:10047C00405343F480527B689A627B689B6A03F416
:10048C008053002B06D07B68DB6A23F006027B6866
:10049C00DA6202E07B680022DA627B68002283F871
:1004AC0024207B681B686FF002021A607B681B6853
:1004BC009B6803F46023B3F5602F13D17B681B6832
:1004CC00114A934205D1114B5B6803F47023002B46
:1004DC0008D17B681B687A681268926842F4A002A3
:1004EC009A600CE07B681B687A681268926842F428
:1004FC0080129A6003E07B68002283F82420FB7B47
:10050C0018461037BD4680BD00280140002401402C
:10051C0090B587B000AF7860396000237B61002311
:10052C00FB6000233B61FFF763FE78617B681B680F
:10053C009B6803F48073002B0BD07B689B6A43F0A1
:10054C0020027B689A627B68002283F824200123B6
:10055C00C8E07B681B685B6803F48073002B2AD1AE
:10056C007B681B68DB6A03F47003002B23D11AE051
:10057C003B68B3F1FF3F16D03B68002B07D0FFF769
:10058C0037FE02467B69D21A3B689A420BD97B68CC
:10059C009B6A43F004027B689A627B68002283F8B2
:1005AC00242003239EE07B681B681B6803F0020376
:1005BC00002BDDD06CE04D4B1C68022001F046F99D
:1005CC000346B4FBF3F27B681B681969484B0B407C
:1005DC00002B18D17B681B68D968464B0B40002B4D
:1005EC0011D17B681B681969434B0B40002B08D158
:1005FC007B681B68D968414B0B40002B01D114233D
:10060C0020E029231EE07B681B6819693A4B0B40DC
:10061C00002B06D17B681B68D968384B0B40002B2C
:10062C000DD07B681B681969354B0B40002B08D12A
:10063C007B681B68D968324B0B40002B01D15423CB
:10064C0000E0FC2303FB02F33B611DE03B68B3F1CC
:10065C00FF3F16D03B68002B07D0FFF7C9FD0246C1
:10066C007B69D21A3B689A420BD97B689B6A43F030
:10067C0004027B689A627B68002283F8242003239F
:10068C0030E0FB680133FB60FA683B699A42DDD3CA
:10069C007B681B686FF012021A607B689B6A43F4DC
:1006AC0000727B689A627B681B689B6803F460230A
:1006BC00B3F5602F15D17B68DB68002B11D17B68FB
:1006CC009B6A23F480727B689A627B689B6A03F452
:1006DC008053002B05D17B689B6A43F001027B6839
:1006EC009A62002318461C37BD4690BD08000020B6
:1006FC0024499224244992009224491292244900BC
:10070C004992240080B483B000AF78607B681B688A
:10071C00DB6C18460C37BD4680BC704790B484B077
:10072C0000AF786039600023FB730023BB607B68EB
:10073C0093F82430012B01D10223DCE07B680122E9
:10074C0083F824203B685B68062B1CD87B681968EF
:10075C007B681B68586B3B685A6813469B001344B4
:10076C00053B1F2202FA03F3DB4318403B681C686D
:10077C003B685A6813469B001344053B04FA03F389
:10078C0003434B633CE03B685B680C2B1CD87B68D9
:10079C0019687B681B68186B3B685A6813469B008A
:1007AC001344233B1F2202FA03F3DB4318403B683C
:1007BC001C683B685A6813469B001344233B04FA9D
:1007CC0003F303430B631BE07B6819687B681B68AE
:1007DC00D86A3B685A6813469B001344413B1F225E
:1007EC0002FA03F3DB4318403B681C683B685A6809
:1007FC0013469B001344413B04FA03F30343CB62BF
:10080C003B681B68092B1CD97B6819687B681B68C3
:10081C00D8683B681A6813465B0013441E3B0722DA
:10082C0002FA03F3DB4318403B689C683B681A6888
:10083C0013465B0013441E3B04FA03F30343CB60E3
:10084C0019E07B6819687B681B6818693B681A6833
:10085C0013465B001344072202FA03F3DB431840F0
:10086C003B689C683B681A6813465B00134404FAA7
:10087C0003F303430B613B681B68102B03D03B68ED
:10088C001B68112B32D17B681B681D4A934225D102
:10089C007B681B689B6803F40003002B26D17B68E4
:1008AC001B687A681268926842F400029A603B688E
:1008BC001B68102B1AD1134B1B68134AA2FB032382
:1008CC009A0C13469B0013445B00BB6002E0BB68B0
:1008DC00013BBB60BB68002BF9D107E07B689B6ACE
:1008EC0043F020027B689A620123FB737B68002231
:1008FC0083F82420FB7B18461037BD4690BC70470C
:10090C00002401400800002083DE1B4380B584B026
:10091C0000AF78600023FB600023BB607B681B6822
:10092C009B6803F00103012B39D07B681B687A6844
:10093C001268926842F001029A601B4B1B681B4ABA
:10094C00A2FB03239B0CBB6002E0BB68013BBB60BA
:10095C00BB68002BF9D1FFF74BFCF86018E0FFF7F0
:10096C0047FC0246FB68D31A022B11D97B689B6AA1
:10097C0043F010027B689A627B68DB6A43F00102E9
:10098C007B68DA627B68002283F82420012307E06D
:10099C007B681B689B6803F00103012BDFD10023EC
:1009AC0018461037BD4680BD0800002083DE1B436F
:1009BC0080B584B000AF78600023FB607B681B6857
:1009CC009B6803F00103012B27D17B681B687A68B5
:1009DC001268926822F001029A60FFF709FCF86035
:1009EC0014E0FFF705FC0246FB68D31A022B0DD965
:1009FC007B689B6A43F010027B689A627B68DB6AB7
:100A0C0043F001027B68DA62012307E07B681B6814
:100A1C009B6803F00103012BE3D000231846103729
:100A2C00BD4680BD80B485B000AF78607B6803F0B4
:100A3C000703FB600C4BDB68BB60BA684FF6FF0327
:100A4C001340BB60FB681A02BB68134343F0BF63DF
:100A5C0043F40033BB60044ABB68D36000BF143757
:100A6C00BD4680BC704700BF00ED00E080B400AF15
:100A7C00044BDB681B0A03F007031846BD4680BC19
:100A8C00704700BF00ED00E080B483B000AF0346B8
:100A9C003960FB7197F90730002B0BDA0D49FB79A4
:100AAC0003F00F03043B3A68D2B21201D2B20B44EA
:100ABC001A7609E0084997F907303A68D2B2120160
:100ACC00D2B20B4483F8002300BF0C37BD4680BC68
:100ADC00704700BF00ED00E000E100E080B489B099
:100AEC0000AFF860B9607A60FB6803F00703FB6144
:100AFC00FB69C3F10703042B28BF0423BB61FB690B
:100B0C000433062B02D9FB69033B00E000237B6115
:100B1C000122BB6902FA03F35A1EBB681A407B69B7
:100B2C009A4001217B6901FA03F3591E7B680B4043
:100B3C00134318462437BD4680BC704780B582B03D
:100B4C0000AF78607B68013BB3F1807F01D3012358
:100B5C000FE00A4A7B68013B53600F214FF0FF30D6
:100B6C00FFF792FF054B00229A60044B07221A6094
:100B7C00002318460837BD4680BD00BF10E000E0DA
:100B8C0080B582B000AF78607868FFF74BFF00BF8C
:100B9C000837BD4680BD80B586B000AF0346B9604E
:100BAC007A60FB7300237B61FFF760FF78617A68E2
:100BBC00B9687869FFF792FF024697F90F30114632
:100BCC001846FFF761FF00BF1837BD4680BD80B5E2
:100BDC0082B000AF78607868FFF7B0FF0346184624
:100BEC000837BD4680BD000080B483B000AF78608C
:100BFC007B68042B06D1094A084B1B6843F004039D
:100C0C00136005E0054A054B1B6823F004031360D1
:100C1C0000BF0C37BD4680BC704700BF10E000E041
:100C2C0080B500AF00F002F800BF80BD80B400AF0B
:100C3C0000BFBD4680BC704780B48BB000AF7860FD
:100C4C0039600023FB610023BB6100237B6100231F
:100C5C003B6200233B6100237B6227E101227B6A1C
:100C6C0002FA03F3FB613B681A68FB691340BB6132
:100C7C00BA69FB699A4240F016813B685B68122B9B
:100C8C0034D0122B0DD8022B2BD0022B04D8002BD6
:100C9C0031D0012B1CD048E0032B43D0112B1BD09F
:100CAC0043E0874A934226D0854A934206D8854A28
:100CBC00934220D0844A93421DD036E0834A93421B
:100CCC0019D0834A934216D0824A934213D02CE017
:100CDC003B68DB683B6228E03B68DB6804333B62C3
:100CEC0023E03B68DB6808333B621EE03B68DB6853
:100CFC000C333B6219E03B689B68002B02D1042348
:100D0C003B6212E03B689B68012B05D108233B62D8
:100D1C007B68FA691A6108E008233B627B68FA6910
:100D2C005A6102E000233B6200BFBB69FF2B01D874
:100D3C007B6801E07B680433FB60BB69FF2B02D846
:100D4C007B6A9B0002E07B6A083B9B003B61FB6873
:100D5C001A680F213B6901FA03F3DB431A40396A25
:100D6C003B6901FA03F31A43FB681A603B685B6842
:100D7C0003F08053002B00F09680574A564B9B692A
:100D8C0043F001039361544B9B6903F00103BB6077
:100D9C00BB68524A7B6A9B08023352F823307B6152
:100DAC007B6A03F003039B000F2202FA03F3DB437D
:100DBC007A6913407B617B68494A934213D07B6804
:100DCC00484A93420DD07B68474A934207D07B68D0
:100DDC00464A934201D1032306E0042304E0022394
:100DEC0002E0012300E000237A6A02F00302920081
:100DFC0093407A6913437B6138497B6A9B080233C1
:100E0C007A6941F823203B685B6803F48033002B3C
:100E1C0006D03749364B1A68BB6913430B6006E0A2
:100E2C003349334B1A68BB69DB4313400B603B6897
:100E3C005B6803F40033002B06D02D492C4B5A6809
:100E4C00BB6913434B6006E02949294B5A68BB69BF
:100E5C00DB4313404B603B685B6803F48013002B4F
:100E6C0006D02349224B9A68BB6913438B6006E07A
:100E7C001F491F4B9A68BB69DB4313408B603B686F
:100E8C005B6803F40013002B06D01949184BDA6881
:100E9C00BB691343CB6006E01549154BDA68BB6997
:100EAC00DB431340CB607B6A01337B627B6A0F2B85
:100EBC007FF6D4AE00BF2C37BD4680BC704700BF58
:100ECC000000211000001110000012100000311061
:100EDC0000003210000022100010024000000140FF
:100EEC0000080140000C01400010014000140140BA
:100EFC000004014080B586B000AF786000233B61F0
:100F0C007B681B6803F00103002B00F08780924B79
:100F1C005B6803F00C03042B0CD08F4B5B6803F065
:100F2C000C03082B12D18C4B5B6803F48033B3F5A4
:100F3C00803F0BD1884B1B6803F40033002B6CD023
:100F4C007B685B68002B68D101232DE27B685B68B2
:100F5C00B3F5803F06D1804A7F4B1B6843F4803346
:100F6C0013602EE07B685B68002B0CD17A4A7A4BBD
:100F7C001B6823F480331360774A774B1B6823F488
:100F8C00802313601DE07B685B68B3F5A02F0CD148
:100F9C00714A714B1B6843F4802313606E4A6E4B8D
:100FAC001B6843F4803313600BE06B4A6A4B1B687D
:100FBC0023F480331360684A674B1B6823F4802347
:100FCC0013607B685B68002B13D0FFF711F9386155
:100FDC0008E0FFF70DF902463B69D31A642B01D9DF
:100FEC000323E1E15C4B1B6803F40033002BF0D0CE
:100FFC0014E0FFF7FDF8386108E0FFF7F9F8024656
:10100C003B69D31A642B01D90323CDE1524B1B68E6
:10101C0003F40033002BF0D100E000BF7B681B68A9
:10102C0003F00203002B63D04B4B5B6803F00C0303
:10103C00002B0BD0484B5B6803F00C03082B1CD126
:10104C00454B5B6803F48033002B16D1424B1B6875
:10105C0003F00203002B05D07B681B69012B01D028
:10106C000123A1E13C493C4B1B6823F0F8027B684F
:10107C005B69DB0013430B603AE07B681B69002B58
:10108C0020D0364B01221A60FFF7B2F8386108E025
:10109C00FFF7AEF802463B69D31A022B01D90323A2
:1010AC0082E12D4B1B6803F00203002BF0D02A4980
:1010BC00294B1B6823F0F8027B685B69DB00134348
:1010CC000B6015E0254B00221A60FFF791F8386190
:1010DC0008E0FFF78DF802463B69D31A022B01D9C1
:1010EC00032361E11C4B1B6803F00203002BF0D1BE
:1010FC007B681B6803F00803002B39D07B689B6965
:10110C00002B19D0164B01221A60FFF771F83861C9
:10111C0008E0FFF76DF802463B69D31A022B01D9A0
:10112C00032341E10C4B5B6A03F00203002BF0D06C
:10113C00012000F0B7FA1BE0094B00221A60FFF700
:10114C0057F838610EE0FFF753F802463B69D31AA3
:10115C00022B07D9032327E1001002400000424272
:10116C0080044242924B5B6A03F00203002BEAD1EB
:10117C007B681B6803F00403002B00F0A68000239F
:10118C00FB758B4BDB6903F08053002B0DD1884A28
:10119C00874BDB6943F08053D361854BDB6903F0EC
:1011AC008053FB60FB680123FB75824B1B6803F4C7
:1011BC008073002B18D17F4A7E4B1B6843F48073DD
:1011CC001360FFF715F8386108E0FFF711F80246D5
:1011DC003B69D31A642B01D90323E5E0754B1B68DB
:1011EC0003F48073002BF0D07B68DB68012B06D1F5
:1011FC006F4A6F4B1B6A43F0010313622DE07B684F
:10120C00DB68002B0CD16A4A694B1B6A23F0010383
:10121C001362674A664B1B6A23F0040313621CE0DB
:10122C007B68DB68052B0CD1614A614B1B6A43F070
:10123C00040313625E4A5E4B1B6A43F001031362A4
:10124C000BE05B4A5A4B1B6A23F001031362584AAA
:10125C00574B1B6A23F0040313627B68DB68002B7B
:10126C0015D0FEF7C5FF38610AE0FEF7C1FF024654
:10127C003B69D31A41F28832934201D9032393E09C
:10128C004B4B1B6A03F00203002BEED014E0FEF76D
:10129C00AFFF38610AE0FEF7ABFF02463B69D31A99
:1012AC0041F28832934201D903237DE0404B1B6A03
:1012BC0003F00203002BEED1FB7D012B05D13C4A40
:1012CC003B4BDB6923F08053D3617B68DB69002BDC
:1012DC0069D0374B5B6803F00C03082B61D07B683B
:1012EC00DB69022B46D1344B00221A60FEF780FFDB
:1012FC00386108E0FEF77CFF02463B69D31A022BEB
:10130C0001D9032350E02A4B1B6803F00073002B18
:10131C00F0D17B681B6AB3F5803F08D12449244B7C
:10132C005B6823F400327B689B6813434B60204856
:10133C001F4B5B6823F474127B68196A7B685B6AC9
:10134C000B43134343601C4B01221A60FEF750FF02
:10135C00386108E0FEF74CFF02463B69D31A022BBA
:10136C0001D9032320E0124B1B6803F00073002B00
:10137C00F0D018E0104B00221A60FEF739FF3861EC
:10138C0008E0FEF735FF02463B69D31A022B01D960
:10139C00032309E0064B1B6803F00073002BF0D10C
:1013AC0001E0012300E0002318461837BD4680BD3C
:1013BC0000100240007000406000424280B584B0D2
:1013CC0000AF786039600023FB60724B1B6803F040
:1013DC0007023B689A4210D26E496E4B1B6823F091
:1013EC0007023B6813430B606A4B1B6803F0070250
:1013FC003B689A4201D00123C8E07B681B6803F06C
:10140C000203002B08D06449634B5B6823F0F002A5
:10141C007B689B6813434B607B681B6803F001037C
:10142C00002B6AD07B685B68012B07D15A4B1B6879
:10143C0003F40033002B15D10123A7E07B685B6814
:10144C00022B07D1544B1B6803F00073002B09D1FE
:10145C0001239BE0504B1B6803F00203002B01D1CE
:10146C00012393E04C494C4B5B6823F003027B68EF
:10147C005B6813434B60FEF7BBFEF8607B685B68F0
:10148C00012B12D10AE0FEF7B3FE0246FB68D31A19
:10149C0041F28832934201D9032377E03E4B5B68DB
:1014AC0003F00C03042BEED127E07B685B68022B66
:1014BC001DD10AE0FEF79CFE0246FB68D31A41F2EE
:1014CC008832934201D9032360E0334B5B6803F00D
:1014DC000C03082BEED110E0FEF78AFE0246FB68E7
:1014EC00D31A41F28832934201D903234EE02A4B9E
:1014FC005B6803F00C03002BEED1264B1B6803F04A
:10150C0007023B689A4210D92249224B1B6823F0F0
:10151C0007023B6813430B601E4B1B6803F007026A
:10152C003B689A4201D0012330E07B681B6803F0D2
:10153C000403002B08D01849174B5B6823F4E062B6
:10154C007B68DB6813434B607B681B6803F0080304
:10155C00002B09D01049104B5B6823F460527B6858
:10156C001B69DB0013434B6000F01CF801460A4B6F
:10157C005B681B0903F00F03084AD35C21FA03F3E1
:10158C00074A13600020FEF7F1FD002318461037C0
:10159C00BD4680BD0020024000100240701E0008B5
:1015AC000800002090B48AB000AF2A4B3C1D0FCB32
:1015BC0084E80F00284B1B883B800023FB61002331
:1015CC00BB6100237B6200237B6100233B62234BC6
:1015DC005B68FB61FB6903F00C03042B02D0082B46
:1015EC0003D02DE01E4B3B622DE0FB699B0C03F0FE
:1015FC000F0307F12802134413F8243C7B61FB69A9
:10160C0003F48033002B13D0144B5B685B0C03F09A
:10161C00010307F12802134413F8283CBB617B69D2
:10162C000F4A02FB03F2BB69B2FBF3F37B6204E0EB
:10163C007B690C4A02FB03F37B627B6A3B6202E030
:10164C00074B3B6200BF3B6A18462837BD4690BC2F
:10165C00704700BF281E0008381E0008001002400A
:10166C0000127A0000093D0080B400AF024B1B68E9
:10167C001846BD4680BC70470800002080B500AFFE
:10168C00FFF7F2FF0146054B5B68DB0A03F007032B
:10169C00034AD35C21FA03F3184680BD00100240C4
:1016AC00801E000880B485B000AF78600A4B1B68C0
:1016BC000A4AA2FB03235B0A7A6802FB03F3FB6072
:1016CC0000BFFB685A1EFA60002BF9D100BF14371B
:1016DC00BD4680BC704700BF08000020D34D62108F
:1016EC0080B586B000AF786000233B610023FB60BF
:1016FC007B681B6803F00103002B7DD00023FB7576
:10170C004F4BDB6903F08053002B0DD14C4A4C4BF3
:10171C00DB6943F08053D361494BDB6903F08053A1
:10172C00BB60BB680123FB75464B1B6803F48073DD
:10173C00002B18D1434A434B1B6843F4807313604E
:10174C00FEF756FD386108E0FEF752FD02463B6994
:10175C00D31A642B01D903236DE03A4B1B6803F4B5
:10176C008073002BF0D0364B1B6A03F44073FB6084
:10177C00FB68002B2ED07B685B6803F44072FB681F
:10178C009A4227D02E4B1B6A23F44073FB602E4BDE
:10179C0001221A602C4B00221A60294AFB68136242
:1017AC00FB6803F00103002B14D0FEF721FD386118
:1017BC000AE0FEF71DFD02463B69D31A41F288325E
:1017CC00934201D9032336E01D4B1B6A03F002033D
:1017DC00002BEED01A491A4B1B6A23F440727B681B
:1017EC005B6813430B62FB7D012B05D1144A144B30
:1017FC00DB6923F08053D3617B681B6803F0020321
:10180C00002B08D00E490E4B5B6823F440427B68DA
:10181C009B6813434B607B681B6803F01003002B21
:10182C0008D00749064B5B6823F480027B68DB68B1
:10183C0013434B60002318461837BD4680BD00BFCC
:10184C0000100240007000404004424290B58DB040
:10185C0000AF7860574B07F10C040FCB84E80F00F6
:10186C00554B1B883B8100237B620023FB620023CA
:10187C003B620023FB610023BB627B68022B00F000
:10188C008480102B02D0012B49D08DE04B4B5B6830
:10189C00FB614A4B1B6803F08073002B00F08380C4
:1018AC00FB699B0C03F00F0307F13002134413F890
:1018BC00243C3B62FB6903F48033002B18D03F4B74
:1018CC005B685B0C03F0010307F13002134413F85F
:1018DC00283C7B62FB6903F48033002B0DD0384A23
:1018EC007B6AB2FBF3F33A6A02FB03F3FB6204E09C
:1018FC003B6A344A02FB03F3FB62304B5B6803F434
:10190C008003B3F5800F02D1FB6ABB624BE0FB6A2C
:10191C005B002D4AA2FB03235B08BB6243E0274B11
:10192C001B6AFB61FB6903F44073B3F5807F08D13C
:10193C00FB6903F00203002B03D04FF40043BB629E
:10194C0022E0FB6903F44073B3F5007F09D11B4B14
:10195C005B6A03F00203002B03D049F64043BB62E1
:10196C0012E0FB6903F44073B3F5407F09D1134BCC
:10197C001B6803F40033002B03D04FF22443BB62EB
:10198C0002E00023BB620FE00EE0FFF777FE024699
:10199C000A4B5B689B0B03F0030301335B00B2FB48
:1019AC00F3F3BB6200E000BFBB6A18463437BD4698
:1019BC0090BD00BF3C1E00084C1E000800100240E9
:1019CC0000127A0000093D00ABAAAAAA80B584B027
:1019DC0000AF1B4B1B4A1A60194B00229A60184B24
:1019EC000122DA60164B00225A61154B4FF460222B
:1019FC00DA61134B00225A60114B01221A61104814
:101A0C00FEF700FC0346002B03D043210E4800F0E8
:101A1C00EBF800237B600123BB600023FB603B1DC4
:101A2C0019460748FEF77AFE0346002B03D04D21DA
:101A3C00054800F0D9F800BF1037BD4680BD00BF87
:101A4C002C00002000240140501E000880B588B0F6
:101A5C0000AF78607B681B680E4A934215D10E4A22
:101A6C000D4B9B6943F4007393610B4B9B6903F41F
:101A7C000073FB60FB6801233B6103237B6107F16F
:101A8C00100319460548FFF7D7F800BF2037BD46AD
:101A9C0080BD00BF0024014000100240000801403E
:101AAC0080B483B000AF0E4A0D4B9B6943F020030A
:101ABC0093610B4B9B6903F020037B607B68084AA6
:101ACC00074B9B6943F004039361054B9B6903F03F
:101ADC0004033B603B6800BF0C37BD4680BC7047BD
:101AEC000010024080B500AFFEF72AFB00F018F89A
:101AFC00FFF7D6FFFFF76AFF0748FEF75BFC4FF4D2
:101B0C007A710548FEF704FD0348FEF7FBFD02461B
:101B1C00024B1A60F3E700BF2C0000205C00002091
:101B2C0080B594B000AF0123BB624FF48033FB62ED
:101B3C0000233B630123BB6302237B644FF480339C
:101B4C00BB644FF4E013FB6407F128031846FFF75E
:101B5C00D1F90346002B03D08F21214800F044F823
:101B6C000F237B610223BB610023FB614FF4806375
:101B7C003B6200237B6207F1140302211846FFF736
:101B8C001DFC0346002B03D09D21154800F02CF8BA
:101B9C0002237B604FF40043FB603B1D1846FFF7AC
:101BAC009FFD0346002B03D0A4210D4800F01CF828
:101BBC00FFF75AFD02460B4BA3FB02239B09184669
:101BCC00FFF705F80420FFF70FF8002200214FF073
:101BDC00FF30FEF7E0FF00BF5037BD4680BD00BFB1
:101BEC00601E0008D34D621080B483B000AF7860E3
:101BFC003960FEE780B584B000AF2B4A2A4B9B6955
:101C0C0043F001039361284B9B6903F00103BB6014
:101C1C00BB68254A244BDB6943F08053D361224BCC
:101C2C00DB6903F080537B607B680320FEF7A8FF21
:101C3C00002200216FF00B00FEF7ADFF0022002107
:101C4C006FF00A00FEF7A7FF002200216FF00900D9
:101C5C00FEF7A1FF002200216FF00400FEF79BFFAE
:101C6C00002200216FF00300FEF795FF00220021F7
:101C7C006FF00100FEF78FFF002200214FF0FF30C4
:101C8C00FEF789FF094B5B68FB60FB6823F0E063A0
:101C9C00FB60FB6843F00073FB60044AFB68536015
:101CAC0000BF1037BD4680BD00100240000001404F
:101CBC0080B400AF00BFBD4680BC704780B400AF9D
:101CCC00FEE780B400AFFEE780B400AFFEE780B45F
:101CDC0000AFFEE780B400AF00BFBD4680BC7047CC
:101CEC0080B400AF00BFBD4680BC704780B400AF6D
:101CFC0000BFBD4680BC704780B500AFFEF766FAEA
:101D0C00FEF78EFF00BF80BD80B400AF154A154BA7
:101D1C001B6843F0010313601249124B5A68124BB3
:101D2C0013404B600F4A0F4B1B6823F0847323F452
:101D3C00803313600B4A0B4B1B6823F48023136016
:101D4C00084A084B5B6823F4FE035360054B4FF4C1
:101D5C001F029A60054B4FF000629A6000BFBD46AF
:101D6C0080BC7047001002400000FFF800ED00E05E
:101D7C00002103E00B4B5B58435004310A480B4BDA
:101D8C0042189A42F6D30A4A02E0002342F8043B76
:101D9C00084B9A42F9D3FFF7B7FF00F00FF8FFF7A3
:101DAC00A1FE7047901E0008000000200C000020CF
:101DBC000C00002060000020FEE7000070B500253C
:101DCC000C4E0D4CA41BA410A54209D100F01AF81E
:101DDC0000250A4E0A4CA41BA410A54205D170BDC7
:101DEC0056F8253098470135EEE756F825309847D8
:101DFC000135F2E7881E0008881E0008881E0008BE
:101E0C008C1E0008F8B500BFF8BC08BC9E46704795
:0C1E1C00F8B500BFF8BC08BC9E4670473B
:101E280002030405060708090A0B0C0D0E0F101013
:101E38000102000002030405060708090A0B0C0D3D
:101E48000E0F1010010200002E2E5C5372635C61AD
:101E580064632E63000000002E2E5C5372635C6D79
:101E680061696E2E630000000000000000000000A1
:101E78000102030406070809000000000102030428
:041E8800310100081C
:041E8C000D0100083C
:0C1E9000100000000100000000A24A0445
:0400000508001D7D55
:00000001FF
