:020000040800F2
:1000000000500020E1110008211100082D11000806
:1000100033110008391100083F11000800000000EA
:100020000000000000000000000000004511000872
:1000300051110008000000005D110008691100085E
:1000400029120008291200082912000829120008A4
:100050002912000829120008291200082912000894
:100060002912000829120008291200082912000884
:100070002912000829120008291200082912000874
:100080002912000829120008291200082912000864
:100090002912000829120008291200082912000854
:1000A0002912000829120008291200082912000844
:1000B0002912000829120008291200082912000834
:1000C0002912000829120008291200082912000824
:1000D0002912000829120008291200082912000814
:1000E0002912000829120008291200080000000047
:1000F0000000000000000000000000000000000000
:0C01000000000000000000005FF808F1A3
:10010C0010B5054C237833B9044B13B10448AFF345
:10011C0000800123237010BD0C00002000000000A3
:10012C007412000808B5034B1BB103490348AFF325
:10013C00008008BD000000001000002074120008B0
:10014C0080B500AF084A084B1B6843F010031360DE
:10015C00032000F027F9002000F008F800F07CFFE5
:10016C000023184680BD00BF0020024080B582B03D
:10017C0000AF7860124B1A68124B1B7819464FF47B
:10018C007A73B3FBF1F3B2FBF3F3184600F031F9D9
:10019C000346002B01D001230EE07B680F2B0AD8FD
:1001AC00002279684FF0FF3000F007F9064A7B68AF
:1001BC001360002300E0012318460837BD4680BDBC
:1001CC0008000020040000200000002080B400AFD4
:1001DC00054B1B781A46054B1B681344034A1360E6
:1001EC0000BFBD4680BC70470400002028000020E2
:1001FC0080B400AF024B1B681846BD4680BC7047EC
:10020C002800002080B584B000AF7860FFF7F0FFC5
:10021C00B8607B68FB60FB68B3F1FF3F05D0094B0E
:10022C001B781A46FB681344FB6000BFFFF7E0FF26
:10023C000246BB68D21AFB689A42F7D300BF10374C
:10024C00BD4680BD0400002080B485B000AF78604E
:10025C007B6803F00703FB600C4BDB68BB60BA6880
:10026C004FF6FF031340BB60FB681A02BB681343D5
:10027C0043F0BF6343F40033BB60044ABB68D360F4
:10028C0000BF1437BD4680BC704700BF00ED00E0D6
:10029C0080B400AF044BDB681B0A03F0070318465D
:1002AC00BD4680BC704700BF00ED00E080B483B059
:1002BC0000AF03463960FB7197F90730002B0BDA5E
:1002CC000D49FB7903F00F03043B3A68D2B21201DB
:1002DC00D2B20B441A7609E0084997F907303A680C
:1002EC00D2B21201D2B20B4483F8002300BF0C37F8
:1002FC00BD4680BC704700BF00ED00E000E100E0AF
:10030C0080B489B000AFF860B9607A60FB6803F024
:10031C000703FB61FB69C3F10703042B28BF04230C
:10032C00BB61FB690433062B02D9FB69033B00E07C
:10033C0000237B610122BB6902FA03F35A1EBB68DE
:10034C001A407B699A4001217B6901FA03F3591E1B
:10035C007B680B40134318462437BD4680BC70475E
:10036C0080B582B000AF78607B68013BB3F1807FD1
:10037C0001D301230FE00A4A7B68013B53600F2134
:10038C004FF0FF30FFF792FF054B00229A60044BB1
:10039C0007221A60002318460837BD4680BD00BFEF
:1003AC0010E000E080B582B000AF78607868FFF7AD
:1003BC004BFF00BF0837BD4680BD80B586B000AF8F
:1003CC000346B9607A60FB7300237B61FFF760FF23
:1003DC0078617A68B9687869FFF792FF024697F9F5
:1003EC000F3011461846FFF761FF00BF1837BD46A6
:1003FC0080BD80B582B000AF78607868FFF7B0FF41
:10040C00034618460837BD4680BD000080B483B053
:10041C0000AF78607B68042B06D1094A084B1B6837
:10042C0043F00403136005E0054A054B1B6823F0F9
:10043C000403136000BF0C37BD4680BC704700BF7F
:10044C0010E000E080B500AF00F002F800BF80BD06
:10045C0080B400AF00BFBD4680BC704780B48BB089
:10046C0000AF786039600023FB610023BB6100237F
:10047C007B6100233B6200233B6100237B6227E10D
:10048C0001227B6A02FA03F3FB613B681A68FB6981
:10049C001340BB61BA69FB699A4240F016813B6814
:1004AC005B68122B34D0122B0DD8022B2BD0022BC5
:1004BC0004D8002B31D0012B1CD048E0032B43D0A7
:1004CC00112B1BD043E0874A934226D0854A934296
:1004DC0006D8854A934220D0844A93421DD036E0F8
:1004EC00834A934219D0834A934216D0824A93424C
:1004FC0013D02CE03B68DB683B6228E03B68DB6890
:10050C0004333B6223E03B68DB6808333B621EE04C
:10051C003B68DB680C333B6219E03B689B68002B43
:10052C0002D104233B6212E03B689B68012B05D18E
:10053C0008233B627B68FA691A6108E008233B6276
:10054C007B68FA695A6102E000233B6200BFBB6919
:10055C00FF2B01D87B6801E07B680433FB60BB692F
:10056C00FF2B02D87B6A9B0002E07B6A083B9B0056
:10057C003B61FB681A680F213B6901FA03F3DB430B
:10058C001A40396A3B6901FA03F31A43FB681A6093
:10059C003B685B6803F08053002B00F09680574A51
:1005AC00564B9B6943F001039361544B9B6903F0D9
:1005BC000103BB60BB68524A7B6A9B08023352F84A
:1005CC0023307B617B6A03F003039B000F2202FA4A
:1005DC0003F3DB437A6913407B617B68494A93429E
:1005EC0013D07B68484A93420DD07B68474A9342AC
:1005FC0007D07B68464A934201D1032306E00423CB
:10060C0004E0022302E0012300E000237A6A02F0F6
:10061C000302920093407A6913437B6138497B6AE9
:10062C009B0802337A6941F823203B685B6803F42A
:10063C008033002B06D03749364B1A68BB691343FD
:10064C000B6006E03349334B1A68BB69DB4313403C
:10065C000B603B685B6803F40033002B06D02D491C
:10066C002C4B5A68BB6913434B6006E02949294B54
:10067C005A68BB69DB4313404B603B685B6803F40F
:10068C008013002B06D02349224B9A68BB69134375
:10069C008B6006E01F491F4B9A68BB69DB43134014
:1006AC008B603B685B6803F40013002B06D0194980
:1006BC00184BDA68BB691343CB6006E01549154B40
:1006CC00DA68BB69DB431340CB607B6A01337B6226
:1006DC007B6A0F2B7FF6D4AE00BF2C37BD4680BC97
:1006EC00704700BF00002110000011100000121014
:1006FC0000003110000032100000221000100240E7
:10070C000000014000080140000C014000100140B5
:10071C00001401400004014080B483B000AF786045
:10072C000B467B8013467B707B78002B03D07A883A
:10073C007B681A6103E07B881A047B681A6100BF2E
:10074C000C37BD4680BC704780B483B000AF786076
:10075C000B467B807B68DA687B885A407B68DA6062
:10076C0000BF0C37BD4680BC7047000080B586B01A
:10077C0000AF786000233B617B681B6803F00103CA
:10078C00002B00F08780924B5B6803F00C03042B6A
:10079C000CD08F4B5B6803F00C03082B12D18C4BE5
:1007AC005B6803F48033B3F5803F0BD1884B1B6837
:1007BC0003F40033002B6CD07B685B68002B68D192
:1007CC0001232DE27B685B68B3F5803F06D1804A3C
:1007DC007F4B1B6843F4803313602EE07B685B68AF
:1007EC00002B0CD17A4A7A4B1B6823F480331360AC
:1007FC00774A774B1B6823F4802313601DE07B68DA
:10080C005B68B3F5A02F0CD1714A714B1B6843F494
:10081C00802313606E4A6E4B1B6843F48033136065
:10082C000BE06B4A6A4B1B6823F480331360684AF5
:10083C00674B1B6823F4802313607B685B68002B79
:10084C0013D0FFF7D5FC386108E0FFF7D1FC024666
:10085C003B69D31A642B01D90323E1E15C4B1B6880
:10086C0003F40033002BF0D014E0FFF7C1FC386127
:10087C0008E0FFF7BDFC02463B69D31A642B01D993
:10088C000323CDE1524B1B6803F40033002BF0D152
:10089C0000E000BF7B681B6803F00203002B63D0F1
:1008AC004B4B5B6803F00C03002B0BD0484B5B6885
:1008BC0003F00C03082B1CD1454B5B6803F480330D
:1008CC00002B16D1424B1B6803F00203002B05D002
:1008DC007B681B69012B01D00123A1E13C493C4BF6
:1008EC001B6823F0F8027B685B69DB0013430B6029
:1008FC003AE07B681B69002B20D0364B01221A6032
:10090C00FFF776FC386108E0FFF772FC02463B69A2
:10091C00D31A022B01D9032382E12D4B1B6803F060
:10092C000203002BF0D02A49294B1B6823F0F80254
:10093C007B685B69DB0013430B6015E0254B0022E1
:10094C001A60FFF755FC386108E0FFF751FC0246CE
:10095C003B69D31A022B01D9032361E11C4B1B68A1
:10096C0003F00203002BF0D17B681B6803F0080333
:10097C00002B39D07B689B69002B19D0164B0122B8
:10098C001A60FFF735FC386108E0FFF731FC0246CE
:10099C003B69D31A022B01D9032341E10C4B5B6A4F
:1009AC0003F00203002BF0D0012000F0A3FA1BE0AF
:1009BC00094B00221A60FFF71BFC38610EE0FFF7B1
:1009CC0017FC02463B69D31A022B07D9032327E1F4
:1009DC00001002400000424280044242924B5B6A8B
:1009EC0003F00203002BEAD17B681B6803F00403BD
:1009FC00002B00F0A6800023FB758B4BDB6903F00A
:100A0C008053002B0DD1884A874BDB6943F0805310
:100A1C00D361854BDB6903F08053FB60FB680123DA
:100A2C00FB75824B1B6803F48073002B18D17F4A33
:100A3C007E4B1B6843F480731360FFF7D9FB38615E
:100A4C0008E0FFF7D5FB02463B69D31A642B01D9AA
:100A5C000323E5E0754B1B6803F48073002BF0D087
:100A6C007B68DB68012B06D16F4A6F4B1B6A43F026
:100A7C00010313622DE07B68DB68002B0CD16A4A02
:100A8C00694B1B6A23F001031362674A664B1B6AAE
:100A9C0023F0040313621CE07B68DB68052B0CD18C
:100AAC00614A614B1B6A43F0040313625E4A5E4B5E
:100ABC001B6A43F0010313620BE05B4A5A4B1B6A3F
:100ACC0023F001031362584A574B1B6A23F00403AB
:100ADC0013627B68DB68002B15D0FFF789FB38614C
:100AEC000AE0FFF785FB02463B69D31A41F28832D4
:100AFC00934201D9032393E04B4B1B6A03F002038F
:100B0C00002BEED014E0FFF773FB38610AE0FFF71F
:100B1C006FFB02463B69D31A41F28832934201D9EA
:100B2C0003237DE0404B1B6A03F00203002BEED144
:100B3C00FB7D012B05D13C4A3B4BDB6923F08053F9
:100B4C00D3617B68DB69002B69D0374B5B6803F0A2
:100B5C000C03082B61D07B68DB69022B46D1344B2C
:100B6C0000221A60FFF744FB386108E0FFF740FBF6
:100B7C0002463B69D31A022B01D9032350E02A4BBE
:100B8C001B6803F00073002BF0D17B681B6AB3F574
:100B9C00803F08D12449244B5B6823F400327B68E6
:100BAC009B6813434B6020481F4B5B6823F4741203
:100BBC007B68196A7B685B6A0B43134343601C4B6D
:100BCC0001221A60FFF714FB386108E0FFF710FBF5
:100BDC0002463B69D31A022B01D9032320E0124BA6
:100BEC001B6803F00073002BF0D018E0104B0022B0
:100BFC001A60FFF7FDFA386108E0FFF7F9FA0246D0
:100C0C003B69D31A022B01D9032309E0064B1B685D
:100C1C0003F00073002BF0D101E0012300E000236E
:100C2C0018461837BD4680BD0010024000700040C9
:100C3C006000424280B584B000AF78603960002318
:100C4C00FB60724B1B6803F007023B689A4210D2A0
:100C5C006E496E4B1B6823F007023B6813430B6015
:100C6C006A4B1B6803F007023B689A4201D00123D0
:100C7C00C8E07B681B6803F00203002B08D06449B2
:100C8C00634B5B6823F0F0027B689B6813434B60FB
:100C9C007B681B6803F00103002B6AD07B685B68E0
:100CAC00012B07D15A4B1B6803F40033002B15D1D1
:100CBC000123A7E07B685B68022B07D1544B1B68B0
:100CCC0003F00073002B09D101239BE0504B1B68F0
:100CDC0003F00203002B01D1012393E04C494C4B50
:100CEC005B6823F003027B685B6813434B60FFF780
:100CFC007FFAF8607B685B68012B12D10AE0FFF782
:100D0C0077FA0246FB68D31A41F28832934201D932
:100D1C00032377E03E4B5B6803F00C03042BEED10E
:100D2C0027E07B685B68022B1DD10AE0FFF760FAB5
:100D3C000246FB68D31A41F28832934201D903234D
:100D4C0060E0334B5B6803F00C03082BEED110E032
:100D5C00FFF74EFA0246FB68D31A41F288329342EF
:100D6C0001D903234EE02A4B5B6803F00C03002BE4
:100D7C00EED1264B1B6803F007023B689A4210D950
:100D8C002249224B1B6823F007023B6813430B607C
:100D9C001E4B1B6803F007023B689A4201D00123EB
:100DAC0030E07B681B6803F00403002B08D0184963
:100DBC00174B5B6823F4E0627B68DB6813434B6082
:100DCC007B681B6803F00803002B09D01049104BFB
:100DDC005B6823F460527B681B69DB0013434B6038
:100DEC0000F01CF801460A4B5B681B0903F00F036B
:100DFC00084AD35C21FA03F3074A13600020FFF77B
:100E0C00B5F9002318461037BD4680BD00200240BE
:100E1C0000100240B01200080800002090B48AB004
:100E2C0000AF2A4B3C1D0FCB84E80F00284B1B88CE
:100E3C003B800023FB610023BB6100237B6200230A
:100E4C007B6100233B62234B5B68FB61FB6903F016
:100E5C000C03042B02D0082B03D02DE01E4B3B625D
:100E6C002DE0FB699B0C03F00F0307F128021344E0
:100E7C0013F8243C7B61FB6903F48033002B13D003
:100E8C00144B5B685B0C03F0010307F1280213445D
:100E9C0013F8283CBB617B690F4A02FB03F2BB6968
:100EAC00B2FBF3F37B6204E07B690C4A02FB03F3B5
:100EBC007B627B6A3B6202E0074B3B6200BF3B6A92
:100ECC0018462837BD4690BC704700BF8C120008EE
:100EDC009C1200080010024000127A0000093D002C
:100EEC0080B400AF024B1B681846BD4680BC7047EF
:100EFC000800002080B485B000AF78600A4B1B68F6
:100F0C000A4AA2FB03235B0A7A6802FB03F3FB6029
:100F1C0000BFFB685A1EFA60002BF9D100BF1437D2
:100F2C00BD4680BC704700BF08000020D34D621046
:100F3C0080B586B000AF124A114B9B6943F0100389
:100F4C0093610F4B9B6903F010037B607B6800225D
:100F5C004FF400510B48FFF7DFFB4FF40053BB601D
:100F6C000123FB6000233B6102237B6107F1080333
:100F7C0019460448FFF772FA00BF1837BD4680BD0A
:100F8C00001002400010014080B500AFFFF7D8F808
:100F9C0000F00EF8FFF7CCFF4FF400510348FFF7B9
:100FAC00D3FB3220FFF72EF9F6E700BF001001400B
:100FBC0080B590B000AF0223BB610123BB6210234C
:100FCC00FB6202237B630023BB634FF44023FB6370
:100FDC0007F118031846FFF7C9FB0346002B03D093
:100FEC008421184800F032F80F237B600223BB6089
:100FFC000023FB604FF480633B6100237B613B1D4E
:10100C0000211846FFF716FE0346002B03D0922151
:10101C000C4800F01BF8FFF763FF02460A4BA3FBDA
:10102C0002239B091846FFF7E4F90420FFF7EEF9B9
:10103C00002200214FF0FF30FFF7BFF900BF40370F
:10104C00BD4680BDA0120008D34D621080B483B0A1
:10105C0000AF78603960FEE780B584B000AF2B4AF2
:10106C002A4B9B6943F001039361284B9B6903F066
:10107C000103BB60BB68254A244BDB6943F08053FA
:10108C00D361224BDB6903F080537B607B680320C8
:10109C00FFF788F9002200216FF00B00FFF78DF9A4
:1010AC00002200216FF00A00FFF787F900220021CF
:1010BC006FF00900FFF781F9002200216FF00400A6
:1010CC00FFF77BF9002200216FF00300FFF775F9A1
:1010DC00002200216FF00100FFF76FF900220021C0
:1010EC004FF0FF30FFF769F9094B5B68FB60FB6859
:1010FC0023F0E063FB60FB6843F08063FB60044A11
:10110C00FB68536000BF1037BD4680BD0010024025
:10111C000000014080B400AF00BFBD4680BC7047EA
:10112C0080B400AFFEE780B400AFFEE780B400AF40
:10113C00FEE780B400AFFEE780B400AF00BFBD4651
:10114C0080BC704780B400AF00BFBD4680BC704708
:10115C0080B400AF00BFBD4680BC704780B500AF07
:10116C00FFF734F8FFF76EF900BF80BD80B400AF15
:10117C00154A154B1B6843F0010313601249124BBF
:10118C005A68124B13404B600F4A0F4B1B6823F0ED
:10119C00847323F4803313600B4A0B4B1B6823F4CA
:1011AC0080231360084A084B5B6823F4FE035360EA
:1011BC00054B4FF41F029A60054B4FF000629A608A
:1011CC0000BFBD4680BC7047001002400000FFF815
:1011DC0000ED00E0002103E00B4B5B584350043161
:1011EC000A480B4B42189A42F6D30A4A02E00023F3
:1011FC0042F8043B084B9A42F9D3FFF7B7FF00F0D3
:10120C000FF8FFF7C1FE7047C8120008000000205D
:10121C000C0000200C0000202C000020FEE7000039
:10122C0070B500250C4E0D4CA41BA410A54209D181
:10123C0000F01AF800250A4E0A4CA41BA410A54273
:10124C0005D170BD56F8253098470135EEE756F8B4
:10125C00253098470135F2E7C0120008C01200088B
:10126C00C0120008C4120008F8B500BFF8BC08BCD6
:10127C009E467047F8B500BFF8BC08BC9E46704748
:10128C0002030405060708090A0B0C0D0E0F1010BB
:10129C00010200002E2E5C5372635C6D61696E2E30
:1012AC0063000000000000000000000001020304C5
:0412BC000607080910
:0412C00031010008F0
:0412C4000D01000810
:0C12C800100000000100000000A24A0419
:04000005080011E1FD
:00000001FF
